{
  "contractName": "BlocVoting",
  "abi": [
    {
      "constant": true,
      "inputs": [
        {
          "name": "",
          "type": "address"
        }
      ],
      "name": "votersAdresses",
      "outputs": [
        {
          "name": "",
          "type": "bool"
        }
      ],
      "payable": false,
      "stateMutability": "view",
      "type": "function",
      "signature": "0x0408c5a9"
    },
    {
      "constant": true,
      "inputs": [],
      "name": "votersAmount",
      "outputs": [
        {
          "name": "",
          "type": "uint256"
        }
      ],
      "payable": false,
      "stateMutability": "view",
      "type": "function",
      "signature": "0x212c5fd7"
    },
    {
      "constant": true,
      "inputs": [
        {
          "name": "",
          "type": "uint256"
        }
      ],
      "name": "candidates",
      "outputs": [
        {
          "name": "id",
          "type": "uint256"
        },
        {
          "name": "name",
          "type": "string"
        },
        {
          "name": "party",
          "type": "string"
        },
        {
          "name": "description",
          "type": "string"
        },
        {
          "name": "points",
          "type": "uint256"
        }
      ],
      "payable": false,
      "stateMutability": "view",
      "type": "function",
      "signature": "0x3477ee2e"
    },
    {
      "constant": true,
      "inputs": [],
      "name": "candidatesNumber",
      "outputs": [
        {
          "name": "",
          "type": "uint256"
        }
      ],
      "payable": false,
      "stateMutability": "view",
      "type": "function",
      "signature": "0x66f5dd9e"
    },
    {
      "constant": true,
      "inputs": [
        {
          "name": "",
          "type": "address"
        }
      ],
      "name": "candidatesAdresses",
      "outputs": [
        {
          "name": "",
          "type": "bool"
        }
      ],
      "payable": false,
      "stateMutability": "view",
      "type": "function",
      "signature": "0xf1c948c6"
    },
    {
      "constant": false,
      "inputs": [
        {
          "name": "_name",
          "type": "string"
        },
        {
          "name": "_party",
          "type": "string"
        },
        {
          "name": "_description",
          "type": "string"
        }
      ],
      "name": "runForElection",
      "outputs": [],
      "payable": false,
      "stateMutability": "nonpayable",
      "type": "function",
      "signature": "0x43b7887f"
    },
    {
      "constant": true,
      "inputs": [],
      "name": "getCandidatesNumber",
      "outputs": [
        {
          "name": "",
          "type": "uint256"
        }
      ],
      "payable": false,
      "stateMutability": "view",
      "type": "function",
      "signature": "0xbd0c3928"
    },
    {
      "constant": true,
      "inputs": [
        {
          "name": "candidateId",
          "type": "uint256"
        }
      ],
      "name": "getCandidate",
      "outputs": [
        {
          "name": "",
          "type": "uint256"
        },
        {
          "name": "",
          "type": "string"
        },
        {
          "name": "",
          "type": "string"
        },
        {
          "name": "",
          "type": "string"
        }
      ],
      "payable": false,
      "stateMutability": "view",
      "type": "function",
      "signature": "0x35b8e820"
    },
    {
      "constant": false,
      "inputs": [
        {
          "name": "_voteArray",
          "type": "uint256[]"
        }
      ],
      "name": "vote",
      "outputs": [],
      "payable": false,
      "stateMutability": "nonpayable",
      "type": "function",
      "signature": "0xce11f2bb"
    },
    {
      "constant": true,
      "inputs": [
        {
          "name": "candidateId",
          "type": "uint256"
        }
      ],
      "name": "getCandidatePoints",
      "outputs": [
        {
          "name": "",
          "type": "string"
        },
        {
          "name": "",
          "type": "string"
        },
        {
          "name": "",
          "type": "uint256"
        }
      ],
      "payable": false,
      "stateMutability": "view",
      "type": "function",
      "signature": "0x83b18402"
    },
    {
      "constant": true,
      "inputs": [],
      "name": "getVotersAmount",
      "outputs": [
        {
          "name": "",
          "type": "uint256"
        }
      ],
      "payable": false,
      "stateMutability": "view",
      "type": "function",
      "signature": "0x265fb5c7"
    }
  ],
  "bytecode": "0x608060405234801561001057600080fd5b50611313806100206000396000f3fe6080604052600436106100af576000357c0100000000000000000000000000000000000000000000000000000000900463ffffffff1680630408c5a9146100b4578063212c5fd71461011d578063265fb5c7146101485780633477ee2e1461017357806335b8e8201461030d57806343b7887f146104a057806366f5dd9e1461069657806383b18402146106c1578063bd0c3928146107e8578063ce11f2bb14610813578063f1c948c6146108d8575b600080fd5b3480156100c057600080fd5b50610103600480360360208110156100d757600080fd5b81019080803573ffffffffffffffffffffffffffffffffffffffff169060200190929190505050610941565b604051808215151515815260200191505060405180910390f35b34801561012957600080fd5b50610132610961565b6040518082815260200191505060405180910390f35b34801561015457600080fd5b5061015d610967565b6040518082815260200191505060405180910390f35b34801561017f57600080fd5b506101ac6004803603602081101561019657600080fd5b8101908080359060200190929190505050610971565b60405180868152602001806020018060200180602001858152602001848103845288818151815260200191508051906020019080838360005b838110156102005780820151818401526020810190506101e5565b50505050905090810190601f16801561022d5780820380516001836020036101000a031916815260200191505b50848103835287818151815260200191508051906020019080838360005b8381101561026657808201518184015260208101905061024b565b50505050905090810190601f1680156102935780820380516001836020036101000a031916815260200191505b50848103825286818151815260200191508051906020019080838360005b838110156102cc5780820151818401526020810190506102b1565b50505050905090810190601f1680156102f95780820380516001836020036101000a031916815260200191505b509850505050505050505060405180910390f35b34801561031957600080fd5b506103466004803603602081101561033057600080fd5b8101908080359060200190929190505050610b6f565b60405180858152602001806020018060200180602001848103845287818151815260200191508051906020019080838360005b83811015610394578082015181840152602081019050610379565b50505050905090810190601f1680156103c15780820380516001836020036101000a031916815260200191505b50848103835286818151815260200191508051906020019080838360005b838110156103fa5780820151818401526020810190506103df565b50505050905090810190601f1680156104275780820380516001836020036101000a031916815260200191505b50848103825285818151815260200191508051906020019080838360005b83811015610460578082015181840152602081019050610445565b50505050905090810190601f16801561048d5780820380516001836020036101000a031916815260200191505b5097505050505050505060405180910390f35b3480156104ac57600080fd5b50610694600480360360608110156104c357600080fd5b81019080803590602001906401000000008111156104e057600080fd5b8201836020820111156104f257600080fd5b8035906020019184600183028401116401000000008311171561051457600080fd5b91908080601f016020809104026020016040519081016040528093929190818152602001838380828437600081840152601f19601f8201169050808301925050505050505091929192908035906020019064010000000081111561057757600080fd5b82018360208201111561058957600080fd5b803590602001918460018302840111640100000000831117156105ab57600080fd5b91908080601f016020809104026020016040519081016040528093929190818152602001838380828437600081840152601f19601f8201169050808301925050505050505091929192908035906020019064010000000081111561060e57600080fd5b82018360208201111561062057600080fd5b8035906020019184600183028401116401000000008311171561064257600080fd5b91908080601f016020809104026020016040519081016040528093929190818152602001838380828437600081840152601f19601f820116905080830192505050505050509192919290505050610d9c565b005b3480156106a257600080fd5b506106ab610f11565b6040518082815260200191505060405180910390f35b3480156106cd57600080fd5b506106fa600480360360208110156106e457600080fd5b8101908080359060200190929190505050610f17565b604051808060200180602001848152602001838103835286818151815260200191508051906020019080838360005b83811015610744578082015181840152602081019050610729565b50505050905090810190601f1680156107715780820380516001836020036101000a031916815260200191505b50838103825285818151815260200191508051906020019080838360005b838110156107aa57808201518184015260208101905061078f565b50505050905090810190601f1680156107d75780820380516001836020036101000a031916815260200191505b509550505050505060405180910390f35b3480156107f457600080fd5b506107fd6110a4565b6040518082815260200191505060405180910390f35b34801561081f57600080fd5b506108d66004803603602081101561083657600080fd5b810190808035906020019064010000000081111561085357600080fd5b82018360208201111561086557600080fd5b8035906020019184602083028401116401000000008311171561088757600080fd5b919080806020026020016040519081016040528093929190818152602001838360200280828437600081840152601f19601f8201169050808301925050505050505091929192905050506110ae565b005b3480156108e457600080fd5b50610927600480360360208110156108fb57600080fd5b81019080803573ffffffffffffffffffffffffffffffffffffffff169060200190929190505050611222565b604051808215151515815260200191505060405180910390f35b60006020528060005260406000206000915054906101000a900460ff1681565b60025481565b6000600254905090565b6003602052806000526040600020600091509050806000015490806001018054600181600116156101000203166002900480601f016020809104026020016040519081016040528092919081815260200182805460018160011615610100020316600290048015610a235780601f106109f857610100808354040283529160200191610a23565b820191906000526020600020905b815481529060010190602001808311610a0657829003601f168201915b505050505090806002018054600181600116156101000203166002900480601f016020809104026020016040519081016040528092919081815260200182805460018160011615610100020316600290048015610ac15780601f10610a9657610100808354040283529160200191610ac1565b820191906000526020600020905b815481529060010190602001808311610aa457829003601f168201915b505050505090806003018054600181600116156101000203166002900480601f016020809104026020016040519081016040528092919081815260200182805460018160011615610100020316600290048015610b5f5780601f10610b3457610100808354040283529160200191610b5f565b820191906000526020600020905b815481529060010190602001808311610b4257829003601f168201915b5050505050908060040154905085565b6000606080606084600360008781526020019081526020016000206001016003600088815260200190815260200160002060020160036000898152602001908152602001600020600301828054600181600116156101000203166002900480601f016020809104026020016040519081016040528092919081815260200182805460018160011615610100020316600290048015610c4e5780601f10610c2357610100808354040283529160200191610c4e565b820191906000526020600020905b815481529060010190602001808311610c3157829003601f168201915b50505050509250818054600181600116156101000203166002900480601f016020809104026020016040519081016040528092919081815260200182805460018160011615610100020316600290048015610cea5780601f10610cbf57610100808354040283529160200191610cea565b820191906000526020600020905b815481529060010190602001808311610ccd57829003601f168201915b50505050509150808054600181600116156101000203166002900480601f016020809104026020016040519081016040528092919081815260200182805460018160011615610100020316600290048015610d865780601f10610d5b57610100808354040283529160200191610d86565b820191906000526020600020905b815481529060010190602001808311610d6957829003601f168201915b5050505050905093509350935093509193509193565b600160003373ffffffffffffffffffffffffffffffffffffffff1673ffffffffffffffffffffffffffffffffffffffff16815260200190815260200160002060009054906101000a900460ff16151515610df557600080fd5b60018060003373ffffffffffffffffffffffffffffffffffffffff1673ffffffffffffffffffffffffffffffffffffffff16815260200190815260200160002060006101000a81548160ff02191690831515021790555060046000815480929190600101919050555060a06040519081016040528060045481526020018481526020018381526020018281526020016000815250600360006004548152602001908152602001600020600082015181600001556020820151816001019080519060200190610ec4929190611242565b506040820151816002019080519060200190610ee1929190611242565b506060820151816003019080519060200190610efe929190611242565b5060808201518160040155905050505050565b60045481565b606080600060036000858152602001908152602001600020600101600360008681526020019081526020016000206002016003600087815260200190815260200160002060040154828054600181600116156101000203166002900480601f016020809104026020016040519081016040528092919081815260200182805460018160011615610100020316600290048015610ff45780601f10610fc957610100808354040283529160200191610ff4565b820191906000526020600020905b815481529060010190602001808311610fd757829003601f168201915b50505050509250818054600181600116156101000203166002900480601f0160208091040260200160405190810160405280929190818152602001828054600181600116156101000203166002900480156110905780601f1061106557610100808354040283529160200191611090565b820191906000526020600020905b81548152906001019060200180831161107357829003601f168201915b505050505091509250925092509193909250565b6000600454905090565b6000803373ffffffffffffffffffffffffffffffffffffffff1673ffffffffffffffffffffffffffffffffffffffff16815260200190815260200160002060009054906101000a900460ff1615151561110657600080fd5b600081519050600081118015611120575060016004540181145b151561112b57600080fd5b60016000803373ffffffffffffffffffffffffffffffffffffffff1673ffffffffffffffffffffffffffffffffffffffff16815260200190815260200160002060006101000a81548160ff0219169083151502179055506002600081548092919060010191905055506000600190505b8181101561121d57600083828151811015156111b357fe5b9060200190602002015190506000811180156111d157506004548111155b15156111dc57600080fd5b80600360008481526020019081526020016000206004015401600360008481526020019081526020016000206004018190555050808060010191505061119b565b505050565b60016020528060005260406000206000915054906101000a900460ff1681565b828054600181600116156101000203166002900490600052602060002090601f016020900481019282601f1061128357805160ff19168380011785556112b1565b828001600101855582156112b1579182015b828111156112b0578251825591602001919060010190611295565b5b5090506112be91906112c2565b5090565b6112e491905b808211156112e05760008160009055506001016112c8565b5090565b9056fea165627a7a723058201572a26d3170835a1e564e7c923eedb7eb41e4d5fb966caabb9d5d9251fa8d820029",
  "source": "pragma solidity 0.5.0;\n//TODO modifier le nom BockVoting, changer l'ordre des fonctions\ncontract BlocVoting {\n\n    struct Candidate {\n\n        uint id;\n\n        string name;\n\n        string party;\n\n        string description;\n\n        uint points;\n    }\n\n    mapping(address => bool) public votersAdresses;\n\n    mapping(address => bool) public candidatesAdresses;\n\n\tuint public votersAmount;    \n\n    mapping(uint => Candidate) public candidates;\n\n    uint public candidatesNumber;\n\n    function runForElection(string memory _name, string memory _party, string memory _description) public {\n\n    \trequire(!candidatesAdresses[msg.sender]);\n\n    \tcandidatesAdresses[msg.sender] = true;\n\n        candidatesNumber ++;\n\n        candidates[candidatesNumber] = Candidate(candidatesNumber, _name, _party, _description, 0);\n    }\n\n    function getCandidatesNumber() public view returns(uint) {\n\n        return candidatesNumber;\n    }\n\n    function getCandidate(uint candidateId) public view returns (uint, string memory, string memory, string memory) {\n        \n        return (candidateId, candidates[candidateId].name, candidates[candidateId].party, candidates[candidateId].description);\n    }\n\n    function vote (uint[] memory _voteArray) public {\n\n        require(!votersAdresses[msg.sender]);\n\n        uint voteArrayLength = _voteArray.length;\n\n        require(voteArrayLength > 0 && voteArrayLength == candidatesNumber+1);\n\n        votersAdresses[msg.sender] = true;\n\n        votersAmount ++;\n\n        for (uint candidateId=1; candidateId < voteArrayLength; candidateId++) {\n\n        \tuint candidatePoints = _voteArray[candidateId];\n  \t\t\t\n\t\t\trequire(candidatePoints > 0 && candidatePoints <= candidatesNumber);\n\n        \tcandidates[candidateId].points = candidates[candidateId].points + candidatePoints;\n  \t\t}\n\t}\n\n\tfunction getCandidatePoints(uint candidateId) public view returns(string memory, string memory, uint) {\n\n        return (candidates[candidateId].name, candidates[candidateId].party, candidates[candidateId].points);\n    }\n\n    function getVotersAmount() public view returns(uint) {\n\n        return votersAmount;\n    }\n}",
  "sourcePath": "/home/chaudois/Documents/BlockChain/blockchainESGI/contracts/BlocVoting.sol",
  "compiler": {
    "name": "solc",
    "version": "0.5.0+commit.1d4f565a.Emscripten.clang"
  },
  "schemaVersion": "3.0.1",
  "updatedAt": "2019-01-23T15:50:38.855Z",
  "devdoc": {
    "methods": {}
  },
  "userdoc": {
    "methods": {}
  }
}