{
  "contractName": "BlocVoting",
  "abi": [
    {
      "constant": true,
      "inputs": [
        {
          "name": "",
          "type": "address"
        }
      ],
      "name": "votersAdresses",
      "outputs": [
        {
          "name": "",
          "type": "bool"
        }
      ],
      "payable": false,
      "stateMutability": "view",
      "type": "function",
      "signature": "0x0408c5a9"
    },
    {
      "constant": true,
      "inputs": [],
      "name": "votersAmount",
      "outputs": [
        {
          "name": "",
          "type": "uint256"
        }
      ],
      "payable": false,
      "stateMutability": "view",
      "type": "function",
      "signature": "0x212c5fd7"
    },
    {
      "constant": true,
      "inputs": [
        {
          "name": "",
          "type": "uint256"
        }
      ],
      "name": "candidates",
      "outputs": [
        {
          "name": "id",
          "type": "uint256"
        },
        {
          "name": "name",
          "type": "string"
        },
        {
          "name": "party",
          "type": "string"
        },
        {
          "name": "description",
          "type": "string"
        },
        {
          "name": "points",
          "type": "uint256"
        }
      ],
      "payable": false,
      "stateMutability": "view",
      "type": "function",
      "signature": "0x3477ee2e"
    },
    {
      "constant": true,
      "inputs": [],
      "name": "candidatesNumber",
      "outputs": [
        {
          "name": "",
          "type": "uint256"
        }
      ],
      "payable": false,
      "stateMutability": "view",
      "type": "function",
      "signature": "0x66f5dd9e"
    },
    {
      "constant": true,
      "inputs": [],
      "name": "resultNumber",
      "outputs": [
        {
          "name": "",
          "type": "uint256"
        }
      ],
      "payable": false,
      "stateMutability": "view",
      "type": "function",
      "signature": "0x7a998900"
    },
    {
      "constant": true,
      "inputs": [
        {
          "name": "",
          "type": "uint256"
        }
      ],
      "name": "electionResult",
      "outputs": [
        {
          "name": "id",
          "type": "uint256"
        },
        {
          "name": "name",
          "type": "string"
        },
        {
          "name": "party",
          "type": "string"
        },
        {
          "name": "description",
          "type": "string"
        },
        {
          "name": "points",
          "type": "uint256"
        }
      ],
      "payable": false,
      "stateMutability": "view",
      "type": "function",
      "signature": "0xc8b6543e"
    },
    {
      "constant": true,
      "inputs": [
        {
          "name": "",
          "type": "address"
        }
      ],
      "name": "candidatesAdresses",
      "outputs": [
        {
          "name": "",
          "type": "bool"
        }
      ],
      "payable": false,
      "stateMutability": "view",
      "type": "function",
      "signature": "0xf1c948c6"
    },
    {
      "constant": false,
      "inputs": [
        {
          "name": "_name",
          "type": "string"
        },
        {
          "name": "_party",
          "type": "string"
        },
        {
          "name": "_description",
          "type": "string"
        }
      ],
      "name": "runForElection",
      "outputs": [],
      "payable": false,
      "stateMutability": "nonpayable",
      "type": "function",
      "signature": "0x43b7887f"
    },
    {
      "constant": true,
      "inputs": [],
      "name": "getCandidatesNumber",
      "outputs": [
        {
          "name": "",
          "type": "uint256"
        }
      ],
      "payable": false,
      "stateMutability": "view",
      "type": "function",
      "signature": "0xbd0c3928"
    },
    {
      "constant": true,
      "inputs": [],
      "name": "getResultNumber",
      "outputs": [
        {
          "name": "",
          "type": "uint256"
        }
      ],
      "payable": false,
      "stateMutability": "view",
      "type": "function",
      "signature": "0x4e063fcd"
    },
    {
      "constant": true,
      "inputs": [
        {
          "name": "candidateId",
          "type": "uint256"
        }
      ],
      "name": "getCandidate",
      "outputs": [
        {
          "name": "",
          "type": "uint256"
        },
        {
          "name": "",
          "type": "string"
        },
        {
          "name": "",
          "type": "string"
        },
        {
          "name": "",
          "type": "string"
        }
      ],
      "payable": false,
      "stateMutability": "view",
      "type": "function",
      "signature": "0x35b8e820"
    },
    {
      "constant": false,
      "inputs": [
        {
          "name": "_voteArray",
          "type": "uint256[]"
        }
      ],
      "name": "vote",
      "outputs": [],
      "payable": false,
      "stateMutability": "nonpayable",
      "type": "function",
      "signature": "0xce11f2bb"
    },
    {
      "constant": true,
      "inputs": [
        {
          "name": "candidateId",
          "type": "uint256"
        }
      ],
      "name": "getCandidatePoints",
      "outputs": [
        {
          "name": "",
          "type": "string"
        },
        {
          "name": "",
          "type": "string"
        },
        {
          "name": "",
          "type": "uint256"
        }
      ],
      "payable": false,
      "stateMutability": "view",
      "type": "function",
      "signature": "0x83b18402"
    },
    {
      "constant": true,
      "inputs": [],
      "name": "getVotersAmount",
      "outputs": [
        {
          "name": "",
          "type": "uint256"
        }
      ],
      "payable": false,
      "stateMutability": "view",
      "type": "function",
      "signature": "0x265fb5c7"
    },
    {
      "constant": true,
      "inputs": [],
      "name": "isVoteRunning",
      "outputs": [
        {
          "name": "",
          "type": "bool"
        }
      ],
      "payable": false,
      "stateMutability": "view",
      "type": "function",
      "signature": "0x3cedb6ed"
    },
    {
      "constant": false,
      "inputs": [],
      "name": "startElection",
      "outputs": [],
      "payable": true,
      "stateMutability": "payable",
      "type": "function",
      "signature": "0x62d73eb8"
    },
    {
      "constant": false,
      "inputs": [],
      "name": "closeElection",
      "outputs": [],
      "payable": true,
      "stateMutability": "payable",
      "type": "function",
      "signature": "0x6c6c32d0"
    },
    {
      "constant": true,
      "inputs": [
        {
          "name": "candidateId",
          "type": "uint256"
        }
      ],
      "name": "getResult",
      "outputs": [
        {
          "name": "",
          "type": "uint256"
        },
        {
          "name": "",
          "type": "string"
        },
        {
          "name": "",
          "type": "uint256"
        }
      ],
      "payable": false,
      "stateMutability": "view",
      "type": "function",
      "signature": "0x995e4339"
    }
  ],
  "bytecode": "0x608060405234801561001057600080fd5b50611bfe806100206000396000f3fe6080604052600436106100fc576000357c0100000000000000000000000000000000000000000000000000000000900463ffffffff1680630408c5a914610101578063212c5fd71461016a578063265fb5c7146101955780633477ee2e146101c057806335b8e8201461035a5780633cedb6ed146104ed57806343b7887f1461051c5780634e063fcd1461071257806362d73eb81461073d57806366f5dd9e146107475780636c6c32d0146107725780637a9989001461077c57806383b18402146107a7578063995e4339146108ce578063bd0c392814610990578063c8b6543e146109bb578063ce11f2bb14610b55578063f1c948c614610c1a575b600080fd5b34801561010d57600080fd5b506101506004803603602081101561012457600080fd5b81019080803573ffffffffffffffffffffffffffffffffffffffff169060200190929190505050610c83565b604051808215151515815260200191505060405180910390f35b34801561017657600080fd5b5061017f610ca3565b6040518082815260200191505060405180910390f35b3480156101a157600080fd5b506101aa610ca9565b6040518082815260200191505060405180910390f35b3480156101cc57600080fd5b506101f9600480360360208110156101e357600080fd5b8101908080359060200190929190505050610cb3565b60405180868152602001806020018060200180602001858152602001848103845288818151815260200191508051906020019080838360005b8381101561024d578082015181840152602081019050610232565b50505050905090810190601f16801561027a5780820380516001836020036101000a031916815260200191505b50848103835287818151815260200191508051906020019080838360005b838110156102b3578082015181840152602081019050610298565b50505050905090810190601f1680156102e05780820380516001836020036101000a031916815260200191505b50848103825286818151815260200191508051906020019080838360005b838110156103195780820151818401526020810190506102fe565b50505050905090810190601f1680156103465780820380516001836020036101000a031916815260200191505b509850505050505050505060405180910390f35b34801561036657600080fd5b506103936004803603602081101561037d57600080fd5b8101908080359060200190929190505050610eb1565b60405180858152602001806020018060200180602001848103845287818151815260200191508051906020019080838360005b838110156103e15780820151818401526020810190506103c6565b50505050905090810190601f16801561040e5780820380516001836020036101000a031916815260200191505b50848103835286818151815260200191508051906020019080838360005b8381101561044757808201518184015260208101905061042c565b50505050905090810190601f1680156104745780820380516001836020036101000a031916815260200191505b50848103825285818151815260200191508051906020019080838360005b838110156104ad578082015181840152602081019050610492565b50505050905090810190601f1680156104da5780820380516001836020036101000a031916815260200191505b5097505050505050505060405180910390f35b3480156104f957600080fd5b506105026110de565b604051808215151515815260200191505060405180910390f35b34801561052857600080fd5b506107106004803603606081101561053f57600080fd5b810190808035906020019064010000000081111561055c57600080fd5b82018360208201111561056e57600080fd5b8035906020019184600183028401116401000000008311171561059057600080fd5b91908080601f016020809104026020016040519081016040528093929190818152602001838380828437600081840152601f19601f820116905080830192505050505050509192919290803590602001906401000000008111156105f357600080fd5b82018360208201111561060557600080fd5b8035906020019184600183028401116401000000008311171561062757600080fd5b91908080601f016020809104026020016040519081016040528093929190818152602001838380828437600081840152601f19601f8201169050808301925050505050505091929192908035906020019064010000000081111561068a57600080fd5b82018360208201111561069c57600080fd5b803590602001918460018302840111640100000000831117156106be57600080fd5b91908080601f016020809104026020016040519081016040528093929190818152602001838380828437600081840152601f19601f8201169050808301925050505050505091929192905050506110f4565b005b34801561071e57600080fd5b5061072761128b565b6040518082815260200191505060405180910390f35b610745611295565b005b34801561075357600080fd5b5061075c6112b1565b6040518082815260200191505060405180910390f35b61077a6112b7565b005b34801561078857600080fd5b50610791611415565b6040518082815260200191505060405180910390f35b3480156107b357600080fd5b506107e0600480360360208110156107ca57600080fd5b810190808035906020019092919050505061141b565b604051808060200180602001848152602001838103835286818151815260200191508051906020019080838360005b8381101561082a57808201518184015260208101905061080f565b50505050905090810190601f1680156108575780820380516001836020036101000a031916815260200191505b50838103825285818151815260200191508051906020019080838360005b83811015610890578082015181840152602081019050610875565b50505050905090810190601f1680156108bd5780820380516001836020036101000a031916815260200191505b509550505050505060405180910390f35b3480156108da57600080fd5b50610907600480360360208110156108f157600080fd5b81019080803590602001909291905050506115a8565b6040518084815260200180602001838152602001828103825284818151815260200191508051906020019080838360005b83811015610953578082015181840152602081019050610938565b50505050905090810190601f1680156109805780820380516001836020036101000a031916815260200191505b5094505050505060405180910390f35b34801561099c57600080fd5b506109a56116a0565b6040518082815260200191505060405180910390f35b3480156109c757600080fd5b506109f4600480360360208110156109de57600080fd5b81019080803590602001909291905050506116aa565b60405180868152602001806020018060200180602001858152602001848103845288818151815260200191508051906020019080838360005b83811015610a48578082015181840152602081019050610a2d565b50505050905090810190601f168015610a755780820380516001836020036101000a031916815260200191505b50848103835287818151815260200191508051906020019080838360005b83811015610aae578082015181840152602081019050610a93565b50505050905090810190601f168015610adb5780820380516001836020036101000a031916815260200191505b50848103825286818151815260200191508051906020019080838360005b83811015610b14578082015181840152602081019050610af9565b50505050905090810190601f168015610b415780820380516001836020036101000a031916815260200191505b509850505050505050505060405180910390f35b348015610b6157600080fd5b50610c1860048036036020811015610b7857600080fd5b8101908080359060200190640100000000811115610b9557600080fd5b820183602082011115610ba757600080fd5b80359060200191846020830284011164010000000083111715610bc957600080fd5b919080806020026020016040519081016040528093929190818152602001838360200280828437600081840152601f19601f8201169050808301925050505050505091929192905050506118a8565b005b348015610c2657600080fd5b50610c6960048036036020811015610c3d57600080fd5b81019080803573ffffffffffffffffffffffffffffffffffffffff169060200190929190505050611a3e565b604051808215151515815260200191505060405180910390f35b60016020528060005260406000206000915054906101000a900460ff1681565b60035481565b6000600354905090565b6004602052806000526040600020600091509050806000015490806001018054600181600116156101000203166002900480601f016020809104026020016040519081016040528092919081815260200182805460018160011615610100020316600290048015610d655780601f10610d3a57610100808354040283529160200191610d65565b820191906000526020600020905b815481529060010190602001808311610d4857829003601f168201915b505050505090806002018054600181600116156101000203166002900480601f016020809104026020016040519081016040528092919081815260200182805460018160011615610100020316600290048015610e035780601f10610dd857610100808354040283529160200191610e03565b820191906000526020600020905b815481529060010190602001808311610de657829003601f168201915b505050505090806003018054600181600116156101000203166002900480601f016020809104026020016040519081016040528092919081815260200182805460018160011615610100020316600290048015610ea15780601f10610e7657610100808354040283529160200191610ea1565b820191906000526020600020905b815481529060010190602001808311610e8457829003601f168201915b5050505050908060040154905085565b6000606080606084600460008781526020019081526020016000206001016004600088815260200190815260200160002060020160046000898152602001908152602001600020600301828054600181600116156101000203166002900480601f016020809104026020016040519081016040528092919081815260200182805460018160011615610100020316600290048015610f905780601f10610f6557610100808354040283529160200191610f90565b820191906000526020600020905b815481529060010190602001808311610f7357829003601f168201915b50505050509250818054600181600116156101000203166002900480601f01602080910402602001604051908101604052809291908181526020018280546001816001161561010002031660029004801561102c5780601f106110015761010080835404028352916020019161102c565b820191906000526020600020905b81548152906001019060200180831161100f57829003601f168201915b50505050509150808054600181600116156101000203166002900480601f0160208091040260200160405190810160405280929190818152602001828054600181600116156101000203166002900480156110c85780601f1061109d576101008083540402835291602001916110c8565b820191906000526020600020905b8154815290600101906020018083116110ab57829003601f168201915b5050505050905093509350935093509193509193565b60008060009054906101000a900460ff16905090565b600260003373ffffffffffffffffffffffffffffffffffffffff1673ffffffffffffffffffffffffffffffffffffffff16815260200190815260200160002060009054906101000a900460ff1615151561114d57600080fd5b600015156000809054906101000a900460ff16151514151561116e57600080fd5b6001600260003373ffffffffffffffffffffffffffffffffffffffff1673ffffffffffffffffffffffffffffffffffffffff16815260200190815260200160002060006101000a81548160ff02191690831515021790555060066000815480929190600101919050555060a0604051908101604052806006548152602001848152602001838152602001828152602001600081525060046000600654815260200190815260200160002060008201518160000155602082015181600101908051906020019061123e929190611a5e565b50604082015181600201908051906020019061125b929190611a5e565b506060820151816003019080519060200190611278929190611a5e565b5060808201518160040155905050505050565b6000600754905090565b60016000806101000a81548160ff021916908315150217905550565b60065481565b60008090505b6006548110156113df576004600082815260200190815260200160002060056000838152602001908152602001600020600082015481600001556001820181600101908054600181600116156101000203166002900461131e929190611ade565b5060028201816002019080546001816001161561010002031660029004611346929190611ade565b506003820181600301908054600181600116156101000203166002900461136e929190611ade565b5060048201548160040155905050600460008281526020019081526020016000206000808201600090556001820160006113a89190611b65565b6002820160006113b89190611b65565b6003820160006113c89190611b65565b6004820160009055505080806001019150506112bd565b50600654600781905550600060068190555060008060006101000a81548160ff0219169083151502179055506000600381905550565b60075481565b606080600060046000858152602001908152602001600020600101600460008681526020019081526020016000206002016004600087815260200190815260200160002060040154828054600181600116156101000203166002900480601f0160208091040260200160405190810160405280929190818152602001828054600181600116156101000203166002900480156114f85780601f106114cd576101008083540402835291602001916114f8565b820191906000526020600020905b8154815290600101906020018083116114db57829003601f168201915b50505050509250818054600181600116156101000203166002900480601f0160208091040260200160405190810160405280929190818152602001828054600181600116156101000203166002900480156115945780601f1061156957610100808354040283529160200191611594565b820191906000526020600020905b81548152906001019060200180831161157757829003601f168201915b505050505091509250925092509193909250565b6000606060008060009054906101000a900460ff161515156115c957600080fd5b83600560008681526020019081526020016000206001016005600087815260200190815260200160002060040154818054600181600116156101000203166002900480601f01602080910402602001604051908101604052809291908181526020018280546001816001161561010002031660029004801561168c5780601f106116615761010080835404028352916020019161168c565b820191906000526020600020905b81548152906001019060200180831161166f57829003601f168201915b505050505091509250925092509193909250565b6000600654905090565b6005602052806000526040600020600091509050806000015490806001018054600181600116156101000203166002900480601f01602080910402602001604051908101604052809291908181526020018280546001816001161561010002031660029004801561175c5780601f106117315761010080835404028352916020019161175c565b820191906000526020600020905b81548152906001019060200180831161173f57829003601f168201915b505050505090806002018054600181600116156101000203166002900480601f0160208091040260200160405190810160405280929190818152602001828054600181600116156101000203166002900480156117fa5780601f106117cf576101008083540402835291602001916117fa565b820191906000526020600020905b8154815290600101906020018083116117dd57829003601f168201915b505050505090806003018054600181600116156101000203166002900480601f0160208091040260200160405190810160405280929190818152602001828054600181600116156101000203166002900480156118985780601f1061186d57610100808354040283529160200191611898565b820191906000526020600020905b81548152906001019060200180831161187b57829003601f168201915b5050505050908060040154905085565b600115156000809054906101000a900460ff1615151415156118c957600080fd5b600160003373ffffffffffffffffffffffffffffffffffffffff1673ffffffffffffffffffffffffffffffffffffffff16815260200190815260200160002060009054906101000a900460ff1615151561192257600080fd5b60008151905060008111801561193c575060016006540181145b151561194757600080fd5b60018060003373ffffffffffffffffffffffffffffffffffffffff1673ffffffffffffffffffffffffffffffffffffffff16815260200190815260200160002060006101000a81548160ff0219169083151502179055506003600081548092919060010191905055506000600190505b81811015611a3957600083828151811015156119cf57fe5b9060200190602002015190506000811180156119ed57506006548111155b15156119f857600080fd5b8060046000848152602001908152602001600020600401540160046000848152602001908152602001600020600401819055505080806001019150506119b7565b505050565b60026020528060005260406000206000915054906101000a900460ff1681565b828054600181600116156101000203166002900490600052602060002090601f016020900481019282601f10611a9f57805160ff1916838001178555611acd565b82800160010185558215611acd579182015b82811115611acc578251825591602001919060010190611ab1565b5b509050611ada9190611bad565b5090565b828054600181600116156101000203166002900490600052602060002090601f016020900481019282601f10611b175780548555611b54565b82800160010185558215611b5457600052602060002091601f016020900482015b82811115611b53578254825591600101919060010190611b38565b5b509050611b619190611bad565b5090565b50805460018160011615610100020316600290046000825580601f10611b8b5750611baa565b601f016020900490600052602060002090810190611ba99190611bad565b5b50565b611bcf91905b80821115611bcb576000816000905550600101611bb3565b5090565b9056fea165627a7a7230582007b745427d0ac08000d15882219b8c4ccf7e1dc323cf8fde002ea78bc24743210029",
  "source": "pragma solidity 0.5.0;\n//TODO modifier le nom BockVoting, changer l'ordre des fonctions\ncontract BlocVoting {\n\n    struct Candidate {\n\n        uint id;\n\n        string name;\n\n        string party;\n\n        string description;\n\n        uint points;\n    }\n    bool VoteInProgress;\n\n    mapping(address => bool) public votersAdresses;\n\n    mapping(address => bool) public candidatesAdresses;\n\n\tuint public votersAmount;    \n\n    mapping(uint => Candidate) public candidates;\n    mapping(uint => Candidate) public electionResult;\n\n    uint public candidatesNumber;\n    uint public resultNumber;\n\n\n\n\n    function runForElection(string memory _name, string memory _party, string memory _description) public {\n\n\n        require(!candidatesAdresses[msg.sender]);\n        require(VoteInProgress==false);\n\n    \tcandidatesAdresses[msg.sender] = true;\n\n        candidatesNumber ++;\n\n        candidates[candidatesNumber] = Candidate(candidatesNumber, _name, _party, _description, 0);\n    }\n\n    function getCandidatesNumber() public view returns(uint) {\n\n        return candidatesNumber;\n    }\n    function getResultNumber() public view returns(uint) {\n\n        return resultNumber;\n    }\n\n    function getCandidate(uint candidateId) public view returns (uint, string memory, string memory, string memory) {\n        \n        return (candidateId, candidates[candidateId].name, candidates[candidateId].party, candidates[candidateId].description);\n    }\n\n    function vote (uint[] memory _voteArray) public {\n\n        require(VoteInProgress==true);\n\n        require(!votersAdresses[msg.sender]);\n\n        uint voteArrayLength = _voteArray.length;\n\n        require(voteArrayLength > 0 && voteArrayLength == candidatesNumber+1);\n\n        votersAdresses[msg.sender] = true;\n\n        votersAmount ++;\n\n        for (uint candidateId=1; candidateId < voteArrayLength; candidateId++) {\n\n        \tuint candidatePoints = _voteArray[candidateId];\n  \t\t\t\n\t\t\trequire(candidatePoints > 0 && candidatePoints <= candidatesNumber);\n\n        \tcandidates[candidateId].points = candidates[candidateId].points + candidatePoints;\n  \t\t}\n\t}\n\n\tfunction getCandidatePoints(uint candidateId) public view returns(string memory, string memory, uint) {\n    \n\n        return (candidates[candidateId].name, candidates[candidateId].party, candidates[candidateId].points);\n    }\n\n    function getVotersAmount() public view returns(uint) {\n\n        return votersAmount;\n    }\n    function isVoteRunning() public view returns(bool){\n        return VoteInProgress;\n    }\n\n    function startElection()public payable {\n        VoteInProgress=true;\n    }\n    function closeElection() public payable{\n         for(uint i =0 ; i < candidatesNumber ; i++){\n            electionResult[i]=candidates[i];\n            delete(candidates[i]);\n        }\n        resultNumber=candidatesNumber;\n        candidatesNumber=0;\n        VoteInProgress=false;    \n        votersAmount=0;\n    }\n    function getResult(uint candidateId) public view returns(uint, string memory, uint) {\n        require(!VoteInProgress);\n        return (candidateId,electionResult[candidateId].name,electionResult[candidateId].points);\n    }\n}",
  "sourcePath": "/home/chaudois/Documents/BlockChain/blockchainESGI/contracts/BlocVoting.sol",
  "compiler": {
    "name": "solc",
    "version": "0.5.0+commit.1d4f565a.Emscripten.clang"
  },
  "schemaVersion": "3.0.1",
  "updatedAt": "2019-01-24T00:36:31.066Z",
  "devdoc": {
    "methods": {}
  },
  "userdoc": {
    "methods": {}
  }
}